:0300030002085898
:10085800C0E0C0F0C083C082C0D075D000C000C066
:1008680001C002C003C004C005C006C00730930819
:10087800C290D291C292800FA2909297D2907F0F8D
:100888001208AAA2979290D007D006D005D004D01B
:1008980003D002D001D000D0D0D082D083D0F0D005
:0208A800E0323C
:03001300020800E0
:10080000C0E0C0F0C083C082C0D075D000C000C0BE
:1008100001C002C003C004C005C006C00730930871
:10082000D290C291D2928015309102801030920401
:10083000C2928009D2907F0F1208AAC290D007D02E
:1008400006D005D004D003D002D001D000D0D0D043
:0808500082D083D0F0D0E03229
:1008AA00EFD39400401C1FE4F508E508C394DC501C
:1008BA00EF0508758DC3758B50C28FD28E208FEAD3
:0308CA0080FB228E
:1008CD00C290D291C29275891175A880D2A8D2AA70
:0608DD00C293C2B280FECE
:030000000208E310
:0C08E300787FE4F6D8FD7581080208CD8E
:00000001FF
